:020000040800F2
:10000000F8090020A9010008013C00084539000852
:10001000FD3B00084D1400084541000800000000A9
:10002000000000000000000000000000313C00085B
:100030008D14000800000000053C0008333C000857
:10004000C3010008C3010008C3010008C301000880
:10005000C3010008C3010008C3010008C301000870
:10006000C3010008C3010008C301000851140008BF
:10007000C3010008C3010008C3010008C301000850
:10008000C3010008C3010008D1120008C301000821
:10009000C3010008C3010008C3010008C301000830
:1000A000AD3C0008DD3C0008CD3C0008BD3C00082C
:1000B000ED3C0008C301000800000000C301000877
:1000C000C30100080000000000000000C301000898
:1000D0000000000035410008C301000800000000D6
:1000E00099140008C3010008C301000800F002F8D9
:1000F00000F04AF80AA090E8000C82448344AAF178
:100100000107DA4501D100F03FF8AFF2090EBAE875
:100110000F0013F0010F18BFFB1A43F0010318473B
:100120005052000070520000103A24BF78C878C1C5
:10013000FAD8520724BF30C830C144BF04680C60ED
:10014000704700000023002400250026103A28BF35
:1001500078C1FBD8520728BF30C148BF0B60704739
:10016000662905F03B80642900F0888000207047F4
:100170001FB500F06FFB04000020002104F0B8FD63
:10018000E0601FBD10B510BD00F064FC1146FFF724
:10019000EFFF04F031FA00F082FC03B4FFF7F2FF46
:1001A00003BC00F0C5FC000009488047094800472F
:1001B000FEE7FEE7FEE7FEE7FEE7FEE7FEE7FEE717
:1001C000FEE7FEE704480549054A064B7047000074
:1001D000A93C0008ED000008F8030020F809002001
:1001E000F8050020F80500200FB41CB5084B06AA3E
:1001F0007B4469460090059800F013FB04460020FC
:10020000694600F021FB20461CBC5DF814FB000091
:10021000550600002DE9F0410E46044600202062FC
:100220002046E168884730B3252805D0D4E901216C
:100230009047206A401CF2E7E16820460027884783
:10024000050018D0A5F14100192802D820354FF437
:1002500000673246294620462760FFF781FF40B1FC
:10026000012804D0F61D26F007060836D8E7361D0B
:10027000D6E72846DAE7206ABDE8F0812DE9F041AB
:100280000646002410687529314616A510D0AFF334
:100290000080002802DA404213A507E031688A078F
:1002A00001D512A502E0490704D511A5012401E0FA
:1002B000AFF3008000210A2206F1240709E0B0FB19
:1002C000F2FCB0FBF2F302FB1C003030785418460D
:1002D000491C0028F3D123462A463046BDE8F041A8
:1002E00000F032B8000000002D0000002B000000DC
:1002F000200000004FF0000200B5134694469646D9
:10030000203922BFA0E80C50A0E80C50B1F1200128
:10031000BFF4F7AF090728BFA0E80C5048BF0CC0D6
:100320005DF804EB890028BF40F8042B08BF704734
:1003300048BF20F8022B11F0804F18BF00F8012BA6
:1003400070477047704770472DE9F0470D46994652
:100350009246044600F124080168880604D5E06945
:1003600021F01001216000E00120A84201DD471BBF
:1003700000E00027A1697A1902EB0900081AA061C0
:100380002078C00602D42046AFF30080002608E0A3
:10039000D4E901211AF806009047206A401C761C17
:1003A00020624E45F4DB2078C0060AD52046AFF324
:1003B000008006E0D4E9012130209047206A401CEB
:1003C0002062381EA7F10107F4DC07E0D4E901211F
:1003D00018F805009047206A401C2062281EA5F1ED
:1003E0000105F3DC2046AFF300802078000602D53B
:1003F0000220BDE8F0870120FBE770472DE9FF4FA1
:100400000C461E464FF0FF378BB0D2E90001DDF8F5
:1004100060800A908A46C1F30A5505B93D4600211D
:1004200008464FF00000BAF1000F00F4400005DA72
:1004300000EB80004FF4400101EA50004FEA905970
:10044000B9F1010F00DDB9460A9850EA4A000ED012
:1004500044F61050A5F2FF3545432F14B8F1000FB4
:100460001ED07542291E1EDDC9F100021CE0B8F144
:10047000010F4FF0000001D0302103E0F24305E00E
:100480002154401CB042FBDB3046002200212154A5
:100490000B99C1F80880C1E900200FB0BDE8F08FCA
:1004A000BD1B6D1CDEE74A4600DA694206A800F073
:1004B0005BFA06AB93E8070003AB83E807005046FE
:1004C0000A9900F03CFB8DE80700A0F500501F38AA
:1004D00000900398002D0ADD42F21F014A460844AD
:1004E000002303A90390684600F0A5FD09E0A0F5EC
:1004F00000504A461F38002303A90390684600F0C5
:10050000AFFD8DE807000004000C03D04FF0FF3072
:10051000410800E01046B8F1000F03D0002200921D
:1005200015461EE0751E05D400F098F9303262556C
:100530006D1EF9D5B3460122084302D000227F1C6C
:1005400004E02078302801D100227F1E002A09977C
:1005500084D01DE0112D07DA00F080F930326255A9
:100560006D1C50EA0102F5D1084302D00098C8B1D1
:100570000EE00021681E05E0235C625C6354225497
:10058000401E491C8142F7DBAB46A81B401E099068
:10059000002004F80B000B98099AC0F80880C0E905
:1005A000002B7AE711264FF0000857E72DE9F04FAE
:1005B00088460446D21D22F0070191B0D1E900011E
:1005C000CDE90A0103F0C0FD02460B98C00F01D02F
:1005D0002D2007E02068810701D52B2002E0202193
:1005E00001EAC000032A099001D0072A05DB03466F
:1005F0004146204600F078F90BE12078800601D5CD
:10060000E06900E00620B8F1650F814606D0B8F138
:10061000660F18D0B8F1670F70D131E00020B9F142
:10062000110F009001DB112301E009F101030AAA77
:1006300001A90CA8FFF7E2FEDDE90C70002609F124
:100640000105834647E001204B4600904FF00047EC
:100650000AAA01A90CA8FFF7D1FEDDE90DB00C999B
:100660005D46002610B909F101000D18B9EB05002F
:1006700003D4C0F1FF3609F10105A5EB09002BE019
:10068000B9F1010F01DA4FF001090020B9F1110FA2
:100690000090484601DD112300E003460AAA01A9A3
:1006A0000CA8FFF7ABFEDDE90C704D460026834633
:1006B000207800070AD4AB4500DA5D4601A8012D79
:1006C00004DD411911F8011C302907D04F4502DA29
:1006D00017F1040F04DA012082460FE06D1EEEE7E9
:1006E000002F02DCED1B3E4403E0781CA84200DD35
:1006F0007D1CB81B00F1010A4FF00047207800076D
:1007000003D4AA4501DB4FF0FF3A0021B7F1004FB7
:100710000DF143088DF8431024D002202B23002F25
:1007200001DA7F422D230A21021EA0F1010000DC24
:100730005FB197FBF1FC97FBF1F201FB1C7C1746C4
:100740000CF1300C08F801CDEEE7A8F101000370C0
:100750002188090501D5452100E06521A0F10108A6
:1007600000F8011C09980FA9A1EB0807FF1D00B1B3
:100770000120411901EBEA70A1693844081A401EB2
:10078000A0612078C00602D42046AFF3008009980B
:1007900028B1D4E901219047206A401C20622078CA
:1007A000C00622D52046AFF300801EE0002E04DBF9
:1007B000B34502DD01A8805D00E03020D4E90121CD
:1007C0009047206A401C2062761CAAF101005FEA73
:1007D000000A0AD100F03EF8C0680168405CD4E924
:1007E00001219047206A401C2062281EA5F10105C6
:1007F000DCDC07E0D4E9012118F8010B9047206AFE
:10080000401C2062381EA7F10107F3DC2046AFF33D
:100810000080032011B041E601694A1C026108789A
:10082000704700B58FB0CDE9013100210591054930
:100830007944CDE9031011466846FFF7EBFC0FB091
:1008400000BD0000E5FFFFFF0A6802F8010B0A6027
:100850007047000000487047B403002030B5B0F185
:100860000A024FEA900E71F100034EEA817EB0EB6E
:100870000E0061EB91014FEA101E4EEA017E10EB73
:100880000E0041EB11114FEA102E4EEA016E10EBF3
:100890000E0041EB11214FEA104E4EEA014E10EBD3
:1008A0000E0041EB1141401841F100014FEAD00028
:1008B00040EA41704FEAD10110EB80054FEA810414
:1008C00044EA907444EB01046D1944EB0404521B98
:1008D000A3414FF0000348BF0A3200D530BD401C91
:1008E00041F1000130BD00002DE9F0411F460446F2
:1008F00003260168072A01F4006004DB08B116A58D
:1009000005E016A503E008B115A500E015A521F046
:1009100010002060A069C01EA0610FB1401EA06140
:100920002046AFF300804FB1D4E90121384690470B
:10093000206A401C2062C01C206206E0206AFAE7A0
:10094000D4E9012115F8010B9047761EF8D2204614
:10095000AFF30080BDE8F0814E414E006E616E0045
:10096000494E4600696E66002DE9F04781461646FD
:100970008AB0354878440DC88DE80D003248784477
:10098000801C03AC0DC884E80D0041F69B30084480
:10099000372190FBF1F290FBF1F5A5F1800501FB09
:1009A00012041B3C02D56442012000E00020DFF865
:1009B00098A080460027FA44AAF1BE0A0EE0E0079C
:1009C0000AD03246684607EB470101230AEB810152
:1009D00000F046FB8DE8070064107F1C002CEED170
:1009E000194F7F44AE3F19E0E80715D007EB04101C
:1009F0000DF1180A90E80E008AE80E00C068F04277
:100A000001D1981908903246012306A903A800F0E5
:100A100027FB03AB83E807006D10641C002DE3D1B6
:100A20004FF0010332466946B8F1000F03A802D027
:100A300000F001FB01E000F013FBC9E90001C9F877
:100A400008200AB0BDE8F087FC4800000048704765
:100A5000940300207546FFF7F9FFAE46050069468E
:100A6000534620F00700854618B020B5FFF7AAFBD3
:100A7000BDE820404FF000064FF000074FF000089F
:100A80004FF0000B21F00701AC46ACE8C009ACE820
:100A9000C009ACE8C009ACE8C0098D46704710B584
:100AA0000446AFF300802046BDE81040FFF775BB59
:100AB0004FF0013C50F8042B51F8043B9A4221D1ED
:100AC000A2EB0C03934313EACC1317D150F8042B79
:100AD00051F8043B9A4215D1A2EB0C03934313EA5D
:100AE000CC130BD150F8042B51F8043B9A4209D196
:100AF000A2EB0C03934313EACC13DBD04FF00000BE
:100B0000704700BFD01A01BAB1FA81F101F01801A3
:100B100022FA01F0CB40C1F12001DBB2C0B2C01A11
:100B20002CFA01F3D11A914311EAC311E6D17047AF
:100B300001491820ABBEFEE72600020070475FEABD
:100B4000400C08BF91F0000F4FEA8C234FEAC122FE
:100B500043EA51514FEA1C5018BF00F5F0404FEAEC
:100B6000300018BF41F000415FEA6C5C00F0298062
:100B7000BCF1FF3F08BF40F080407047130C06BF38
:100B800012044FF0100C4FF0000C130E04BF1202B1
:100B90000CF1080C130F04BF12010CF1040C930F9D
:100BA00004BF92000CF1020CD30F04BF52000CF1F1
:100BB000010C11464FF00002A0F11F00A0EB0C0049
:100BC000704711F0004F08BF704731F000413FF40B
:100BD000D5AF0B0C06BF09044FF0100C4FF0000C02
:100BE0000B0E04BF09020CF1080C0B0F04BF090126
:100BF0000CF1040C8B0F04BF89000CF1020CCB0F1D
:100C000004BF49000CF1010CCCF12003A0EB0C0057
:100C100022FA03F302FA0CF241EA030100F10100A7
:100C2000704720F07F4C80EA030023F07F47ACEB55
:100C3000070303F57C5300F0004003F1FF032DE9A7
:100C400080494FEA154B09B44FEA144325EA0B4E8D
:100C500024EA03480FF2042606EB132749083E78DE
:100C60005FEA320203FB0667C7F5000707FB06F6DB
:100C70004FEA54374FEAD64606F1020607FB066CE8
:100C8000CCF1005C4FEA1C472CEA074C07FB06F44A
:100C90000CFB06F504EB15464FEA961634BF002010
:100CA0004FF000404FEAD13706FB07FC4FEA1C4CDF
:100CB0000CFB0BF7D21B03FB0CF761EB07010CFBE2
:100CC0000EF7B0EB074072EB17420CFB08F734BF8E
:100CD000A2EB0742B2EB074261EB17414FEA0C442B
:100CE0004FEA910706FB07FC4FEA1C4C0CFB0BF785
:100CF000B0EBC74072EB573203FB0CF734BFA2EBEB
:100D0000C742B2EBC74261EB57310CFB0EF7B0EBB9
:100D1000C70072EB57720CFB08F734BFA2EBC70297
:100D2000B2EBC70261EB5771039F4FEA816141EA61
:100D3000921104EBCC044FEAD1374FEA826206FBF2
:100D400007FC42EA90124FEA80604FEA1C4C0CFB11
:100D50000BF7D21B03FB0CF761EB07010CFB0EF743
:100D6000B0EB074072EB17420CFB08F734BFA2EB65
:100D70000742B2EB074261EB17414FEA8C554FEA4D
:100D8000910704EB9C2406FB07FC4FEA1C4C0CFB70
:100D90000BF7B0EBC74072EB573203FB0CF734BFD5
:100DA000A2EBC742B2EBC74261EB57310CFB0EF727
:100DB000B0EBC70072EB57720CFB08F734BFA2EB25
:100DC000C702B2EBC70261EB577115EB4C254FEA36
:100DD000816141EA92114FEA82624FEAD13742EAD9
:100DE000901206FB07FC44F100044FEA80604FEAD2
:100DF0001C4C0CFB0BF7D21B03FB0CF761EB070140
:100E00000CFB0EF7B0EB074072EB17420CFB08F738
:100E100034BFA2EB0742B2EB074261EB174115EB7F
:100E20001C154FEA813141EA92414FEA823242EA8F
:100E300090424FEA80304FEA0C7644F1000448EAD1
:100E400003434EEA0B484FF0000EB2EB080C71EB77
:100E5000030724BF624639464EEB0E0E4FF0000BDF
:100E60000018524149414BEB0B0BB2EB080C71EBF4
:100E700003077BF1000B24BF624639464EEB0E0E92
:100E80004FF0000B0018524149414BEB0B0BB2EBFA
:100E9000080C71EB03077BF1000B24BF6246394657
:100EA0004EEB0E0E51EA020718BF46F0010616EB94
:100EB0000E7655F1000254F1000103D5BDE8890119
:100EC000BDE80088BDE88901BDE80048B619524177
:100ED00041EB0101A3F10103704780807F7E7D7C9F
:100EE0007B7A7978777676757473727171706F6EBC
:100EF0006E6D6C6C6B6A6A69686867666665646467
:100F0000636362616160605F5F5E5E5D5D5C5C5BF0
:100F10005B5A5A595958585757565655555554545F
:100F2000535352525251515050504F4F4F4E4E4DBD
:100F30004D4D4C4C4C4B4B4B4A4A4A494949484809
:100F40004847474747464646454545444444444349
:100F500043434342424242414141002B9C4630D4EC
:100F600077002BD01CB54FEA370703B44FF01000C1
:100F70004FF01001BAF1000F06D0BCF1000FDCBF3A
:100F800040F0080040F008014FF000000FBCBDE841
:100F900010400BF1010BBBF1010F08BF5FEA17070F
:100FA00022BF12F1010211F101014FF0004143F1A2
:100FB000000300F0004043EA00007047F9D35708EF
:100FC000D0E746EA064613F1400F4FEA16461FDD0A
:100FD00013F1200FDFBF16430A46002120335B4286
:100FE000BED0C3F1200746EA064602FA07F74FEAE9
:100FF000164646EA0706C3F1200722FA03F201FA71
:1010000007F721FA03F14FF0000342EA0702A7E7CE
:1010100046EA020646EA06464FEA164646EA010650
:10102000BCBF46EA0646360C4FF000034FF0000204
:101030004FF0000194E72DE9804C9A46934670B436
:1010400091E8380007C831EA400C48BF34EA430C45
:1010500003D5FFF7E6FDFFF780FFF0BCBDE8008C8D
:101060002DE9804C9A46934670B491E8380007C841
:1010700010F0804F08BF13F0804F03D100F005F847
:10108000FFF76BFFF0BCBDE8008C20F07F4780EAE3
:10109000030023F07F4C07EB0C03A3F57C5300F017
:1010A0000040A3F1FE0392F0000F00F0B38095F032
:1010B000000F00F077802DE901494FEA11404FEA17
:1010C000144621EA004800FB06FC24EA064708FB18
:1010D00006F607FB08F800FB07F718EB06484CEB91
:1010E000164C4FEA124B18EB07484FEA15464CEBEB
:1010F000174022EA0B4E0BFB06FC25EA06470EFBC7
:1011000006F607FB0EFE0BFB07F71EEB064E4CEB3D
:10111000164C4FF000061EEB074E4CEB174B18EB2E
:101120000B0840F1000018EB0E0B58EB000840F1E3
:1011300000008F1A4FF000013CBFC943661B14BF6B
:10114000B5EB040C00213CBFC943F61B4FEA174422
:101150004EEA8E0E27EA04454FEA1C4704FB07625D
:101160002CEA074C05FB07F70CFB05F604FB0CFC0F
:1011700016EB074642EB174216EB0C4642EB1C42BD
:101180001BEB060658EB0202414146EA9E0601D5DA
:10119000BDE80189B619524141EB0101A3F10103F8
:1011A000BDE801894FEA14454FEA114724EA054694
:1011B00021EA074C05FB07F406FB07F70CFB06F1D9
:1011C00005FB0CFC11EB074144EB17444FEA1247B7
:1011D00011EB0C4144EB1C4422EA074C05FB07F2DF
:1011E00006FB07F70CFB06F605FB0CFC16EB0746A7
:1011F00042EB174216EB0C4642EB1C456A1854F1C1
:10120000000148BF7047B619524141EB0101A3F1FB
:101210000103704795F0000F37D04FEA11424FEAB3
:10122000144721EA024624EA074C02FB07F106FBB9
:1012300007F70CFB06F402FB0CFC14EB074441EB34
:1012400017414FEA154714EB0C4441EB1C4125EACA
:10125000074C02FB07F506FB07F70CFB06F602FB43
:101260000CFC16EB074645EB174516EB0C4645EB19
:101270001C42121951F1000148BF7047B619524182
:1012800041EB0101A3F1010370474FEA14454FEA16
:10129000114724EA054621EA074C05FB07F106FB46
:1012A00007F70CFB06F24FF0000605FB0CFC12EBF7
:1012B000074241EB174112EB0C4251EB1C4148BF76
:1012C0007047921841EB0101A3F101037047000040
:1012D00010B5024800F03BFA10BD000040000020AD
:1012E00070B5044600252068806800F0010018B33E
:1012F0002068806820F001002168886001F0D8F83B
:10130000054613E001F0D4F8401B02280ED92068EE
:10131000806800F0010048B1A06A40F01000A062AF
:10132000E06A40F00100E062012070BD2068806842
:1013300000F001000028E5D10020F6E770B5054671
:101340006C6AA06A00F05000E0B9A06A40F4007036
:10135000A0622068806800F46020B0F5602F0DD195
:10136000207B58B9A06A20F48070A062A06A00F4C3
:10137000805018B9A06A40F00100A062204600F039
:10138000E3F903E0206A016B2846884770BD70B519
:1013900005466C6AA06A40F04000A062E06A40F036
:1013A0000400E062204600F0D1F970BD70B504463B
:1013B000656A284600F0C9F970BD000038B50446DA
:1013C0000025002000902068806800F0010078BBB4
:1013D0002068806840F00100216888601948006832
:1013E0001949B0FBF1F0009002E00098401E009017
:1013F00000980028F9D101F05BF8054619E001F0EA
:1014000057F8401B022814D92068806800F00100BA
:1014100078B9A06A40F01000A062E06A40F00100D4
:10142000E06200BF002084F8240000BF012038BD26
:1014300005E02068806800F001000028DFD000206F
:10144000F5E700003C00002040420F0000BFFEE72F
:1014500010B5024800F0F0FC10BD00007000002044
:1014600030B590F840500124AC40C56B6C60046806
:1014700063604468102C04D10468A2600468E160D1
:1014800003E00468A1600468E26030BD704700E0DA
:10149000401E0028FCD1704710B54FF4806000F06A
:1014A00065FE4FF4006000F061FE4FF4005000F064
:1014B0005DFE4FF4804000F059FE4FF4004000F014
:1014C00055FE10BD72B600BFFEE70000F8B5044639
:1014D00000260020009000BF94F82400012801D1CC
:1014E0000220F8BD012084F8240000BF2046FFF749
:1014F000F7FE0646002E6CD1A06A20F4885040F01A
:101500000200A062022001F0ABF835490968B1FB86
:10151000F0F04000009002E00098401E009000981B
:101520000028F9D12046FFF749FF2068806840F085
:1015300008002168886000F0BBFF054616E000F057
:10154000B7FF401B0A2811D92068806800F0080006
:1015500060B1A06A20F0020040F01000A06200BF5D
:10156000002084F8240000BF0120BAE720688068CA
:1015700000F008000028E2D12068806840F00400F4
:101580002168886000F094FF054616E000F090FFA7
:10159000401B0A2811D92068806800F0040060B15F
:1015A000A06A20F0020040F01000A06200BF0020FE
:1015B00084F8240000BF012093E72068806800F0D1
:1015C00004000028E2D1A06A20F0020040F00100EF
:1015D000A06200BF002084F8240000BF304680E7EE
:1015E0003C0000207047000038B502460023002070
:1015F000009000BF92F82400012801D1022038BDDC
:10160000012082F8240000BF4868072812D2106821
:10161000406B0C79641E04EB84051F24AC40A0438E
:101620000D796D1E05EB85050C68AC4020431468F0
:10163000606327E048680D2812D21068006B0C79AF
:10164000E41F04EB84051F24AC40A0430D79ED1F7B
:1016500005EB85050C68AC4020431468206311E05D
:101660001068C06A0C790D3C04EB84051F24AC4063
:10167000A0430D790D3D05EB85050C68AC4020437A
:101680001468E06208680A2812D31068C0680C78F1
:101690000A3C04EB44050724AC40A0430D780A3D06
:1016A00005EB45058C68AC4020431468E0600FE012
:1016B000106800690C7804EB44050724AC40A04393
:1016C0000D7805EB45058C68AC402043146820611B
:1016D0000868102802D00868112827D1174C106814
:1016E000A0421ED11068806800F40000F0B91068B4
:1016F000806840F400001468A0600868102815D1C4
:101700000F4800680F4CB0FBF4F000EB8000400085
:10171000009002E00098401E009000980028F9D147
:1017200004E0906A40F020009062012300BF002096
:1017300082F8240000BF184661E700000024014041
:101740003C00002040420F0070477047704710B5C2
:1017500004462068406800F0200020282FD120682F
:10176000006800F00200022829D1A06A00F01000F1
:1017700018B9A06A40F40070A0622068806800F484
:101780006020B0F5602F13D1207B88B920684068B5
:1017900020F0200021684860A06A20F48070A062D8
:1017A000A06A00F4805018B9A06A40F00100A0625D
:1017B0002046FFF7C9FF6FF012002168086020681B
:1017C000406800F0800080283BD12068006800F06D
:1017D0000400042835D1A06A00F0100018B9A06AEE
:1017E00040F40050A0622068806800F4E040B0F54A
:1017F000E04F0DD02068406800F48060D0B92068C8
:10180000806800F46020B0F5602F13D1207B88B988
:101810002068406820F0800021684860A06A20F4B9
:101820008050A062A06A00F4807018B9A06A40F0ED
:101830000100A0622046FFF7D5FE6FF00C00216882
:1018400008602068406800F0400040280FD1206800
:10185000006800F0010050B1A06A40F48030A0623E
:10186000204600F0A7F86FF001002168086010BD65
:101870002DE9F0410446002700250026A84614B9AA
:101880000120BDE8F081A06810B1207D00B100BF4B
:10189000A06A30B90020E06284F82400204600F0FD
:1018A0008BF82046FFF71CFD0746A06A00F01000E9
:1018B000002873D1002F71D1A06A20F4885040F025
:1018C0000200A062E16960680843217B40EA4100B0
:1018D0000643A068B0F5807F02D0A068012802D13D
:1018E0004FF4807000E000200543207D012811D1D5
:1018F000207B38B9A069401E4FF4006141EA4030B6
:10190000054307E0A06A40F02000A062E06A40F0D2
:101910000100E0622068406820F4694028432168A3
:101920004860206880682149084030432168886009
:10193000A068B0F5807F02D0A068012802D14FF4E2
:10194000807000E00020B0F5807F03D1208A401E27
:101950004FEA00582068C06A20F4700040EA08008E
:101960002168C8622068806811490840B04208D1E7
:101970000020E062A06A20F0020040F00100A062B6
:1019800011E0A06A20F0020040F01000A062E06ABE
:1019900040F00100E062012705E0FFE7A06A40F0A7
:1019A0001000A062012738466BE70000FDF7E1FF59
:1019B000FE0E1FFF7047000010B586B004460020E1
:1019C000029003900490059025492068884245D1F3
:1019D00000BF2448806940F40070224988610846AD
:1019E000806900F40070019000BF00BF00BF08468E
:1019F000806940F0040088610846806900F00400B6
:101A0000019000BF00BF012002900320039002A9B3
:101A1000154800F0B9FB15481549086000204860DA
:101A20000021134881608021C16049000161890063
:101A3000416100218161C16100F0CCFA08B1FFF77A
:101A400041FD00BF0A482062446200BF00221146E7
:101A5000122000F0B3FD122000F0A0FD06B010BD72
:101A6000002401400010024000080140080002402C
:101A7000700000202DE9F04104460D46164600276F
:101A800057492068884203D056492068884205D1CA
:101A90005348001D006800F4702000E0002000287A
:101AA0007ED100BF94F82400012802D10220BDE8B5
:101AB000F081012084F8240000BF2046FFF77EFC5F
:101AC0000746002F6DD1A06A40F60161884340F4BB
:101AD0008070A06243492068884209D14048001DB7
:101AE000006800F4702008B9012002E0002000E046
:101AF000012078B1A06A20F48010A06220684068BC
:101B000000F4806000B3A06A20F4005040F48050DC
:101B1000A06219E0A06A40F48010A06230492068F9
:101B2000884203D02F492068884205D12C48001DE7
:101B3000006800F4806000E0002028B1A06A20F472
:101B4000005040F48050A062A06A00F4805020B1A0
:101B5000E06A20F00600E06201E00020E06200BFE1
:101B6000002084F8240000BF1F48216A88621F48B3
:101B7000216AC8621E48216A08636FF0020021686A
:101B800008602068806840F480702168886022685E
:101B900002F14C0133462A46206A00F04FFA01E078
:101BA0001AE014E02068806800F46020B0F5602F2F
:101BB00006D12068806840F4A000216888600CE0AD
:101BC0002068806840F480102168886005E000BFCC
:101BD000002084F8240000E00127384667E7000071
:101BE00000240140002801403D130008AD13000807
:101BF0008F13000870B50446002500BF94F8240038
:101C0000012801D1022070BD012084F8240000BF0A
:101C10002046FFF7D3FB0546002D7DD1A06A40F694
:101C20000161884340F48070A0623F492068884287
:101C300008D13E48006800F4702008B9012002E095
:101C4000002000E0012078B1A06A20F48010A0629A
:101C50002068406800F4806000B3A06A20F400505F
:101C600040F48050A06219E0A06A40F48010A062A5
:101C70002E49091F2068884203D02B4920688842DA
:101C800004D12A48006800F4806000E0002028B1F8
:101C9000A06A20F4005040F48050A062A06A00F4D2
:101CA000805020B1E06A20F00600E06201E00020F0
:101CB000E06200BF002084F8240000BFC01E21683D
:101CC00008602068406840F0200021684860206873
:101CD000806800F46020B0F5602F16D112492068AA
:101CE000884208D11148006800F4702008B901202A
:101CF00002E0002000E0012038B12068806840F454
:101D0000A000216888600CE006E02068806840F44C
:101D100080102168886004E000BF002084F824005F
:101D200000BF28466FE7000000280140042401405E
:101D30000146002291F82100022808D0042088637F
:101D400000BF002081F8200000BF01207047086814
:101D5000006820F00E000B6818600868006820F02A
:101D600001000B68186091F8403001209840CB6B5F
:101D70005860012081F8210000BF002081F8200078
:101D800000BF1046E2E7000070B50446002594F855
:101D90002100022803D00420A063012548E0206828
:101DA000006820F00E00216808602068006820F0BC
:101DB0000100216808601F492068884201D1012084
:101DC00026E01C4914312068884201D110201FE010
:101DD000184928312068884201D1801518E015493A
:101DE0003C312068884201D1801411E01149503102
:101DF0002068884202D14FF4803009E00D496431F7
:101E00002068884202D14FF4801001E04FF08070CA
:101E1000084908394860012084F8210000BF0020EB
:101E200084F8200000BF606B10B12046616B8847CA
:101E3000284670BD0800024070B50446E06B056896
:101E40002068066894F84010042088402840002844
:101E500046D006F00400002842D02068006800F058
:101E6000200028B92068006820F00400216808607C
:101E700057492068884201D1042027E05449143191
:101E80002068884201D1402020E051492831206853
:101E9000884201D1001519E04D493C312068884243
:101EA00002D14FF4804011E0494950312068884206
:101EB00002D14FF4802009E045496431206888420E
:101EC00002D14FF4800001E04FF0806040490839B2
:101ED0004860E06A00287AD02046E16A884776E0C8
:101EE00094F84010022088402840A0B306F0020079
:101EF00088B32068006800F0200040B920680068BE
:101F000020F00A0021680860012084F8210030498F
:101F10002068884201D1022028E02D491431206830
:101F2000884201D1202021E02949283120688842B7
:101F300001D140151AE026493C312068884202D17F
:101F40004FF4005012E0224950312068884203D1FA
:101F50004FF400300AE017E01D49643120688842E0
:101F600002D14FF4001001E04FF000701849083919
:101F7000486000BF002084F8200000BFA06A30B392
:101F80002046A16A884722E094F840100820884043
:101F90002840E0B106F00800C8B12068006820F0D1
:101FA0000E002168086094F8401001208840E16B21
:101FB00048600120A06384F8210000BF002084F85D
:101FC000200000BF206B10B12046216B884770BDF8
:101FD000080002400146002209B901207047164B53
:101FE0000868C01A1423B0FBF3F08000086412489C
:101FF0000838C863022081F821000868026843F6A7
:10200000F0708243D1E901031843CB6818430B6990
:1020100018434B6918438B691843CB691843024333
:102020000868026000208863012081F821000020F8
:1020300081F8200000BFD1E7080002402DE9F041FF
:1020400004460D4616461F464FF0000800BF94F8A0
:102050002000012802D10220BDE8F081012084F88F
:10206000200000BF94F8210001282CD1022084F820
:1020700021000020A0632068006820F00100216892
:1020800008603B46324629462046FFF7E9F9E06AF8
:1020900030B12068006840F00E00216808600BE055
:1020A0002068006820F0040021680860206800684B
:1020B00040F00A00216808602068006840F00100D4
:1020C0002168086006E000BF002084F8200000BFFF
:1020D0004FF002084046BFE770B5044600F0E8F94B
:1020E00006462546681C10B104480078054400BF28
:1020F00000F0DEF9801BA842FAD370BD3800002042
:1021000017490978A1B91749097889B9B0F5005F6D
:1021100002D10121144A1180B0F5804F02D1012172
:10212000114A5180B0F5004F02D101210E4A918031
:10213000B0F5806F07D10A49097809B9012100E09B
:102140000021074A1170B0F5006F07D105490978E1
:1021500009B9012100E00021024A11707047000016
:1021600027000020280000200200002010B50446AF
:1021700004480068204020B1024804602046FFF770
:10218000BFFF10BD140401402DE9F84703460022AB
:10219000944666E14FF0010808FA02F4D1F8008095
:1021A00008EA0400A0427DD1DFF8CCA2D1F8048077
:1021B000A8EB0A09D0453AD014DCB8F1030F50D08F
:1021C00009DCB8F1000F31D0B8F1010F1CD0B8F123
:1021D000020F49D120E0B8F1110F18D0B8F1120F59
:1021E00042D11EE0B9F5881F25D006DCB9F5803F45
:1021F00020D0B9F5801F37D11AE0B9F5001F18D0EB
:10220000B9F5041F30D117E0D1F80CC02DE0D1F89A
:102210000C8008F1040C28E0D1F80C8008F1080CBF
:1022200023E0D1F80C8008F10C0C1EE000BF00BFC9
:1022300000BF00BF00BF00BFD1F80880B8F1000F99
:1022400002D14FF0040C0BE0D1F80880B8F1010F77
:1022500003D14FF0080C1C6102E04FF0080C5C61E8
:1022600003E04FF0000C00E000BF00BFFF2801D8E2
:10227000984601E003F104084646FF2802D84FEAD9
:10228000820803E0A2F108084FEA88084746D6F81A
:1022900000804FF00F0909FA07F928EA09080CFA3B
:1022A00007F900E085E048EA0908C6F80080D1F89F
:1022B000048008F08058B8F1805F7AD100BFDFF861
:1022C000BC81D8F8188048F00108DFF8B091C9F84F
:1022D0001880C846D8F8188008F00108CDF80080AA
:1022E00000BF00BF4FEAB9384FEA920958F82950A9
:1022F0004FEA82784FEA18794FF00F0808FA09F888
:1023000025EA0805DFF87881434502D14FF000083F
:102310000FE0DFF87081434502D14FF0010808E07B
:10232000DFF86481434502D14FF0020801E04FF02D
:1023300003084FEA82794FEA197908FA09F848EA5E
:102340000505DFF848814FEA920948F82950D1F88D
:10235000048008F48038B8F5803F0AD1DFF8308176
:10236000D8F8008048EA0008DFF82491C9F8008016
:1023700009E0DFF81C81D8F8008028EA0008DFF8BF
:102380001091C9F80080D1F8048008F40038B8F53D
:10239000003F0FD1DFF8F88008F10408D8F800807A
:1023A00048EA0008DFF8E89009F10409C9F800805C
:1023B0000EE055E0DFF8D88008F10408D8F8008076
:1023C00028EA0008DFF8C89009F10409C9F800807C
:1023D000D1F8048008F48018B8F5801F0ED1DFF81A
:1023E000B08008F10808D8F8008048EA0008DFF853
:1023F000A09009F10809C9F800800DE0DFF890808D
:1024000008F10808D8F8008028EA0008DFF8809072
:1024100009F10809C9F80080D1F8048008F400180F
:10242000B8F5001F0ED1DFF8688008F10C08D8F865
:10243000008048EA0008DFF8589009F10C09C9F853
:1024400000800DE0DFF8488008F10C08D8F8008023
:1024500028EA0008DFF8389009F10C09C9F8008073
:10246000521CD1F8008028FA02F8B8F1000F7FF46E
:1024700091AEBDE8F8870000000011100010024086
:1024800000080140000C014000100140080001401C
:1024900000040140024693680B400BB1012000E0AC
:1024A000002070470AB1016101E00B04036170472D
:1024B00001480068704700003000002003480068B1
:1024C000034909780844014908607047300000203A
:1024D0003800002010B50848006840F01000064998
:1024E0000860032000F0A8F80F2000F007F800F0C3
:1024F0002BF8002010BD00000020024070B50446FB
:102500000E4800784FF47A71B1FBF0F00C4909687D
:10251000B1FBF0F5284600F02FFD08B1012070BD99
:10252000102C07D200222146501E00F047F8054823
:10253000046001E00120F2E70020F0E7380000200D
:102540003C0000203400002008B500BF114880691D
:1025500040F001000F4988610846806900F00100E1
:10256000009000BF00BF00BF0846C06940F0805027
:10257000C8610846C06900F08050009000BF00BFED
:1025800000BF0549486820F0E06040F000704860F6
:1025900000BF08BD0010024000000140014608468F
:1025A000002809DB00F01F0301229A4043099B0029
:1025B00003F1E023C3F8002100BF70472DE9F05F6D
:1025C00080460D461646002701F0D2FD07463946E3
:1025D0002A46334601F00700C0F1070ABAF1040F9A
:1025E00002D94FF0040A01E0C0F1070AD14600F118
:1025F000040ABAF1070F02D24FF0000A01E0A0F17D
:10260000030AD4464FF0010A0AFA09FAAAF1010AAC
:102610000AEA020A0AFA0CFA4FF0010B0BFA0CFB59
:10262000ABF1010B0BEA030B4AEA0B0421464046CF
:1026300001F0A6FDBDE8F09F00BF00F00702064BC9
:1026400019684FF6FF031940044B0B4343EA02217C
:10265000014B196000BF70470CED00E00000FA0567
:102660002DE9F04385B006463BA30FCB01AC0FC468
:102670003DA0006800904FF00008002500270024CE
:10268000A146012E30D0022E55D0102E5ED13748F3
:102690004468006800F0807000B301A8C4F383416F
:1026A000475C04F4803070B130484068C0F340406B
:1026B0001DF8008004F4803040B12D48B0FBF8F0E4
:1026C00000FB07F502E02B4807FB00F527484068B0
:1026D00000F48000B0F5800F01D1A94603E0680046
:1026E0000321B0FBF1F932E02048046A04F44070A1
:1026F000B0F5807F05D104F0020010B14FF400491D
:1027000018E004F44070B0F5007F07D11748406A24
:1027100000F0020010B149F640490BE004F44070AB
:10272000B0F5407F06D11148006800F4003008B1D0
:102730004FF224490BE000F093F90C494968C1F3CA
:102740008131491C4900B0FBF1F900E000BF00BF36
:10275000484605B0BDE8F0830203040506070809F2
:102760000A0B0C0D0E0F10100102000000100240A9
:1027700000127A0000093D00F8B504460026002545
:10278000207800F0010000286BD000274348C06982
:1027900000F0805070B900BF4048C06940F08050E0
:1027A0003E49C8610846C06900F08050009000BFF3
:1027B00000BF01273A48006800F48070B0B938487B
:1027C000006840F4807036490860FFF771FE0646E5
:1027D00006E0FFF76DFE801B642801D90320F8BDD9
:1027E0002F48006800F480700028F2D02B48006A5F
:1027F00000F440752DB3A08800F44070A84220D0AA
:102800002648006A20F4407501202649086000200F
:1028100008602248056205F0010090B1FFF748FE0C
:10282000064608E0FFF744FE801B41F288318842EB
:1028300001D90320D3E71948006A00F002000028FC
:10284000F0D01648006A20F44070616808431349CC
:102850000862012F04D10846C06920F08050C86189
:1028600000BF207800F00200022807D10B48406822
:1028700020F44040A168084308494860207800F0EF
:102880001000102807D10548406820F48000E16856
:102890000843024948600020A1E700000010024000
:1028A000007000404004424270B504460D460CB929
:1028B000012070BD5A48006800F00700A8420ED2FF
:1028C0005748006820F0070028435549086008462B
:1028D000006800F00700A84201D00120E9E7207855
:1028E00000F0020002281DD1207800F00400042826
:1028F00005D14C48406840F4E0604A49486020787F
:1029000000F00800082805D14648406840F46050AF
:10291000444948604348406820F0F000A1680843FB
:1029200040494860207800F0010078B360680128D1
:1029300006D13C48006800F4003090B90120B8E7A7
:102940006068022806D13748006800F0007040B97E
:102950000120AEE73348006800F0020008B901200A
:10296000A7E73048406820F00300616808432D491C
:102970004860FFF79DFD064609E0FFF799FD801BC3
:1029800041F28831884202D9032092E707E02548C6
:10299000406800F00C006168B0EB810FEDD1204879
:1029A000006800F00700A8420ED91D48006820F01A
:1029B000070028431A4908600846006800F007002D
:1029C000A84201D0012074E7207800F00400042818
:1029D00007D11448406820F4E060E16808431149D9
:1029E0004860207800F00800082808D10D484068A9
:1029F00020F46050216940EAC1000A49486000F0B3
:102A00003FF808494968C1F30311074A515CC840BF
:102A10000649086006480068FFF770FD002048E797
:102A20000020024000100240E05100083C0000205D
:102A30003400002001480068704700003C0000207E
:102A400000B5FFF7F7FF04494968C1F30221034AC3
:102A5000515CC84000BD000000100240F051000869
:102A600000B5FFF7E7FF04494968C1F3C221034AF3
:102A7000515CC84000BD000000100240F051000849
:102A8000F0B585B00FF26C0C9CE8E01001A8A0E84E
:102A9000E0101CA52D6800950021002200230024D1
:102AA0000020194D696801F00C05F5B1042D02D024
:102AB000082D19D101E0154819E001ADC1F3834695
:102AC000AC5D01F4803555B10F4D6D68C5F34045DF
:102AD0001DF805200D4D6543B5FBF2F302E00C4DEA
:102AE00004FB05F3184602E000BF084800BF00BF22
:102AF00005B0F0BD02030405060708090A0B0C0D1A
:102B00000E0F1010010200000010024000127A00A7
:102B100000093D00F8B504460CB90120F8BD207845
:102B200000F00100002878D0F848406800F00C0060
:102B300004280CD0F548406800F00C00082811D19A
:102B4000F248406800F48030B0F5803F0AD1EF4889
:102B5000006800F4003000285FD0606800285CD175
:102B60000120DBE700BF6068B0F5803F06D1E74891
:102B7000006840F48030E549086028E0606858B992
:102B8000E248006820F48030E049086008460068A8
:102B900020F4802008601AE06068B0F5A02F0BD107
:102BA000DA48006840F48020D84908600846006888
:102BB00040F4803008600AE0D448006820F4803097
:102BC000D24908600846006820F48020086000BFF1
:102BD000606888B1FFF76CFC054606E0FFF768FC0B
:102BE000401B642801D9032098E7C848006800F416
:102BF00000300028F2D010E0FFF75AFC054606E04E
:102C0000FFF756FC401B642801D9032086E7BF4824
:102C1000006800F400300028F2D1207800F00200B3
:102C2000022857D1B948406800F00C0050B1B748AD
:102C3000406800F00C00082818D1B448406800F43F
:102C4000803098B9B148006800F0020020B12069D6
:102C5000012801D0012061E7AC48006820F0F800AD
:102C6000616940EAC100A949086033E02069E8B120
:102C70000120A7490860FFF71BFC054606E0FFF7A7
:102C800017FC401B022801D9032047E79F48006832
:102C900000F002000028F2D09C48006820F0F80004
:102CA000616940EAC1009949086013E00020984931
:102CB0000860FFF7FDFB054606E0FFF7F9FB401B48
:102CC000022801D9032029E79048006800F002009B
:102CD0000028F2D1207800F0080008282DD1A06942
:102CE000B8B101208B490860FFF7E2FB054606E01A
:102CF000FFF7DEFB401B022801D903200EE78348C3
:102D0000406A00F002000028F2D0012000F07CFFB1
:102D100013E000207F490860FFF7CAFB054606E084
:102D2000FFF7C6FB401B022801D90320F6E67748CF
:102D3000406A00F002000028F2D1207800F0040080
:102D4000042873D100277148C06900F0805070B921
:102D500000BF6E48C06940F080506C49C8610846A9
:102D6000C06900F08050009000BF00BF01276A4892
:102D7000006800F48070B0B96748006840F4807063
:102D800065490860FFF794FB054606E0FFF790FBF6
:102D9000401B642801D90320C0E65F48006800F4A6
:102DA00080700028F2D000BFE068012806D15748A3
:102DB000006A40F001005549086227E0E06858B910
:102DC0005248006A20F00100504908620846006A33
:102DD00020F00400086219E0E06805280BD14B4898
:102DE000006A40F00400494908620846006A40F061
:102DF000010008620AE04548006A20F001004349EA
:102E000008620846006A20F00400086200BFE0681B
:102E1000A0B1FFF74DFB054609E0FFF749FB401B5A
:102E200041F28831884202D9032077E622E0374810
:102E3000006A00F002000028EFD012E0FFF738FB34
:102E4000054608E0FFF734FB401B41F28831884219
:102E500001D9032062E62D48006A00F00200002834
:102E6000F0D1012F05D12948C06920F080502749B1
:102E7000C86100BFE069C8B32448406800F00C0096
:102E8000082860D0E069022848D10020204908665F
:102E9000FFF70EFB054606E0FFF70AFB401B022882
:102EA00001D903203AE61948006800F000700028B4
:102EB000F2D1206AB0F5803F07D11448406820F471
:102EC0000030A168084311494860D4E9080108436B
:102ED0000E49496821F4741108430C4948600120E7
:102EE0000B490866FFF7E4FA054607E03DE0FFF707
:102EF000DFFA401B022801D903200FE603480068CF
:102F000000F000700028F2D02FE000000010024016
:102F100000004242800442420070004000201449F8
:102F20000866FFF7C5FA054606E0FFF7C1FA401B41
:102F3000022801D90320F1E50E48006800F0007076
:102F40000028F2D111E0E069012800D1E6E5094846
:102F5000466806F48031206A814204D106F470117B
:102F6000606A814201D00120D8E50020D6E500004A
:102F7000000042420010024070B504462546681E1B
:102F8000B0F1807F01D301200FE0681E4FF0E021F7
:102F900048610F214FF0FF3001F0F2F800204FF0B0
:102FA000E021886107200861002070BD70477047EC
:102FB00030B502460B4600BF92F83C00012801D113
:102FC000022030BD012082F83C0000BF022082F8C0
:102FD0003D00106844681068816824F07004186827
:102FE0000443106844600E4D1068A84207D0106872
:102FF000B0F1804F03D00B4D1068A84205D121F0ED
:1030000080015868014310688160012082F83D000A
:1030100000BF002082F83C0000BF00BFD1E70000E5
:10302000002C01400004004010B504460CB90120FA
:1030300010BD94F83D0028B9002084F83C002046DB
:1030400000F026F8022084F83D00211D206800F0E1
:1030500055FE012084F8460000BF84F83E0001219F
:103060003F200155402001554120015500BF00BFC0
:10307000012084F842004320015544200155452099
:10308000015500BF012084F83D000020D0E700007A
:1030900038B504462649206888422ED100BF25480D
:1030A000806940F40060234988610846806900F423
:1030B0000060009000BF00BF002211461820FFF7FB
:1030C0007DFA1820FFF76AFA002211461920FFF74F
:1030D00075FA1920FFF762FA002211461A20FFF74D
:1030E0006DFA1A20FFF75AFA002211461B20FFF74B
:1030F00065FA1B20FFF752FA19E02068B0F1804F03
:1031000015D100BF0B48C06940F001000949C861F2
:103110000846C06900F00100009000BF00BF002217
:1031200011461C20FFF74AFA1C20FFF737FA38BD7A
:10313000002C014000100240014691F83D0001289A
:1031400001D001207047022081F83D000868C06866
:1031500040F001000B68D860104B0868984207D017
:103160000868B0F1804F03D00D4B086898420CD12D
:103170000868806800F00702062A0CD0086800681A
:1031800040F001000B68186005E00868006840F036
:1031900001000B6818600020D4E70000002C0140FB
:1031A000000400402DE9F04104460D4600BF94F8AC
:1031B0003C00012802D10220BDE8F081012084F802
:1031C0003C0000BF022084F83D002068866826F09D
:1031D000770626F47F46206886602868502833D01A
:1031E0000CDC202850D004DC00284BD0102851D112
:1031F00049E0302849D040284CD139E060282DD012
:10320000702807D0B0F5805F03D0B0F5005F41D1E2
:103210000DE040E0D5E902136A68206800F0A0FDE7
:103220002068866846F077062068866033E0D5E936
:1032300002136A68206800F093FD2068806840F4FB
:1032400080402168886026E0EA686968206800F0AC
:103250009BFD5021206800F08EFD1CE0EA68696843
:10326000206800F0A4FD6021206800F084FD12E0D9
:10327000EA686968206800F087FD4021206800F056
:103280007AFD08E000BF00BF00BF2968206800F099
:1032900072FD00E000BF00BF012084F83D0000BFC8
:1032A000002084F83C0000BF00BF85E7704710B5E0
:1032B000044620680069C0F34000D8B12068C068A7
:1032C000C0F34000B0B16FF0020021680861012036
:1032D00020772068806900F0030018B12046FFF7CE
:1032E000E5FF05E0204600F0ADF8204600F0ABF821
:1032F0000020207720680069C0F38000D8B12068E2
:10330000C068C0F38000B0B16FF0040021680861AC
:10331000022020772068806900F4407018B12046B0
:10332000FFF7C4FF05E0204600F08CF8204600F0CF
:103330008AF80020207720680069C0F3C000D8B167
:103340002068C068C0F3C000B0B16FF00800216809
:103350000861042020772068C06900F0030018B1DC
:103360002046FFF7A3FF05E0204600F06BF820465B
:1033700000F069F80020207720680069C0F3001091
:10338000D8B12068C068C0F30010B0B16FF0100071
:1033900021680861082020772068C06900F4407027
:1033A00018B12046FFF782FF05E0204600F04AF8FA
:1033B000204600F048F8002020772068006900F0DF
:1033C000010058B12068C06800F0010030B16FF012
:1033D000010021680861204600F036F82068006985
:1033E000C0F3C01058B12068C068C0F3C01030B13D
:1033F0006FF08000216808612046FFF7D7FD206844
:103400000069C0F3801058B12068C068C0F3801014
:1034100030B16FF0400021680861204600F030F8BC
:1034200020680069C0F3401058B12068C068C0F33C
:10343000401030B16FF02000216808612046FFF78E
:10344000B6FD10BD7047704710B50446012207490C
:103450000748FEF70FFB07480088401C82B24FF078
:10346000FF330549054800F003FA10BD10000020A5
:10347000400000202C000020920100204401002088
:1034800070477047704700002DE9F84F04462068E8
:1034900005682068C668206847694FF00009CA4679
:1034A00005F00F09B9F1000F0AD105F0200038B17D
:1034B00006F0200020B1204600F0C2FCBDE8F88FE5
:1034C000B9F1000F71D007F0010018B906F490703F
:1034D00000286AD005F0010030B106F4807018B100
:1034E000206C40F00100206405F0040030B107F0CA
:1034F000010018B1206C40F00200206405F00200C9
:1035000030B107F0010018B1206C40F004002064D5
:1035100005F0080048B106F0200010B907F00100DE
:1035200018B1206C40F008002064206C68B305F0EE
:10353000200028B106F0200010B1204600F080FCE9
:1035400020684069C0F3801A206C00F0080010B9B0
:10355000BAF1000F22D0204600F047FC20684069F5
:1035600000F04000B0B12068406920F040002168C0
:103570004861A06B50B15648A16B4863A06BFEF741
:1035800003FC10B1A06B416B88470CE02046FFF7AD
:1035900079FF08E02046FFF775FF04E02046FFF7BB
:1035A00071FF0020206489E7FFE7206B012878D1B4
:1035B00005F01000002874D006F01000002870D02C
:1035C00000BF0020009020680068009020684068DC
:1035D000009000BF00BF2068406900F04000C0B309
:1035E000A06B006840681FFA80F8B8F1000F2FD078
:1035F000A08D40452CDDA4F82E80A06B806920288A
:103600001FD02068C06820F480702168C8602068DE
:10361000406920F00100216848612068406920F07D
:10362000400021684861202084F83E00002020638B
:103630002068C06820F010002168C860A06BFEF709
:1036400077FBA08DE28D801A81B22046FFF719FF2B
:1036500034E7FFE7A08DE18D401A1FFA80F8E08D76
:10366000E8B1B8F1000F1AD02068C06820F490705B
:103670002168C8602068406920F001002168486125
:10368000202084F83E00002020632068C06820F0DD
:1036900010002168C86041462046FFF7F2FE0DE7A2
:1036A000FFE705F0800030B106F0800018B1204639
:1036B00000F0D9FC02E705F0400030B106F0400010
:1036C00018B1204600F0ACFBF8E600BFF6E60000BB
:1036D000D73D000810B504460CB9012010BDA06903
:1036E00000B100E000BF94F83D0028B9002084F844
:1036F0003C00204600F028F8242084F83D00206893
:10370000C06820F400502168C860204600F00AFC20
:103710002068006920F490402168086120684069B1
:1037200020F02A00216848612068C06840F40050F9
:103730002168C86000202064202084F83D0084F8BF
:103740003E000020CAE7000010B586B00446002005
:1037500002900390049005901E492068884236D15B
:1037600000BF1D48806940F480401B4988610846BD
:10377000806900F48040019000BF00BF00BF084690
:10378000806940F0040088610846806900F0040008
:10379000019000BF00BF4815029002200390032053
:1037A000059002A90D48FEF7EFFC4FF480600290EF
:1037B00000200390049002A90848FEF7E5FC0022CF
:1037C00011462520FEF7FAFE2520FEF7E7FE06B09B
:1037D00010BD000000380140001002400008014008
:1037E00070B504460D46164694F83E00202816D1C2
:1037F00005B10EB9012070BD00BF94F83C0001284E
:1038000001D10220F7E7012084F83C0000BF00202E
:10381000206332462946204600F002FCEBE70220F6
:10382000E9E7000010B5044601220E490E48FFF7F3
:10383000D7FF0C480078302803D101200B490880BD
:103840000EE008480078312803D10120074948805C
:1038500006E004480078322802D10120034988801C
:1038600010BD0000290000204401002002000020BB
:103870002DE9F84F04460E46174699464FF0000AC8
:1038800094F83D0020285AD106B117B90120BDE8AF
:10389000F88F00BF94F83C00012801D10220F6E720
:1038A000012084F83C0000BF00202064212084F81F
:1038B0003D00FEF7FDFD8246A784E784A068B0F5D1
:1038C000805F04D1206910B90025B04602E035467A
:1038D0004FF0000800BF002084F83C0000BF1BE050
:1038E0005346002280212046CDF8009000F0EBFBEB
:1038F00008B10320CBE745B9B8F80000C0F30800D1
:103900002168486008F1020803E0287821684860CF
:103910006D1CE08C401EE084E08C0028E0D1534612
:10392000002240212046CDF8009000F0CCFB08B1E9
:103930000320ACE7202084F83D000020A7E7022008
:10394000A5E7704700BFFEE70EB50020009001908C
:1039500002901248124908600021114881600173E9
:1039600001754FF46021C16100200D4948600121BB
:103970000B480161FDF77CFF08B1FDF7A3FD0020B6
:103980000090012001900020029069460448FDF754
:103990002BFE08B1FDF796FD0EBD0000002401408E
:1039A0004000002008B500BF0A48406940F001000F
:1039B000084948610846406900F00100009000BFD6
:1039C00000BF002211460B20FEF7F8FD0B20FEF78A
:1039D000E5FD08BD0010024000B585B00020019053
:1039E00002900390049000BF3A48806940F02000A4
:1039F000384988610846806900F02000009000BFC7
:103A000000BF00BF0846806940F004008861084696
:103A1000806900F00400009000BF00BF00BF0846AE
:103A2000806940F0080088610846806900F008005D
:103A3000009000BF00BF002241F6F6112648FEF7B5
:103A400031FD002241F294312448FEF72BFD41F66E
:103A5000F6100190012002900020039002200490B3
:103A600001A91D48FEF790FB41F29430019001201E
:103A70000290002003900220049001A91748FEF74D
:103A800083FB4FF4406001901548029000200390A2
:103A900001A91248FEF778FB4FF4604001901148ED
:103AA00002900020039001A90C48FEF76DFB08204E
:103AB000019000200290039001A90848FEF764FBE2
:103AC000002211462820FEF779FD2820FEF766FD2A
:103AD00005B000BD0010024000080140000C01408C
:103AE000000031100000111000B587B000200390D5
:103AF00004900590069001900290154815490860C1
:103B00007C2048600021134881604FF6FF11C1609E
:103B10000021016141618161FFF786FA08B1FDF77B
:103B2000D1FC4FF48050039003A90A48FFF73AFBF9
:103B300008B1FDF7C7FC00200190029001A90548DB
:103B4000FFF736FA08B1FDF7BDFC07B000BD000075
:103B5000002C0140B400002000B587B00020039085
:103B6000049005900690019002904FF08040144917
:103B700008604FF4BB7048600021114881604FF627
:103B8000FF11C160002101618161FFF74DFA08B1A9
:103B9000FDF798FC4FF48050039003A90848FFF705
:103BA00001FB08B1FDF78EFC00200190029001A9F5
:103BB0000348FFF7FDF908B1FDF784FC07B000BD2D
:103BC000FC00002010B50B480B4908604FF416505C
:103BD0004860002108488160C16001610C21416199
:103BE00000218161C161FFF775FD08B1FDF76AFC35
:103BF00010BD0000003801404401002000BFFEE776
:103C000000BFFEE77047000008B508490968C90809
:103C10004FF47A72B1FBF2F14143009100BF00BF53
:103C200000994A1E00920029F9D108BD3C000020ED
:103C3000704710B5FEF742FC10BD00B593B02821C7
:103C400009A8FCF757FB142104A8FCF753FB00203C
:103C500000900190029003900220099001200D90A5
:103C600010200E900020109009A8FEF753FF08B115
:103C7000FDF728FC0F200490002005900690079087
:103C80000890002104A8FEF70FFE08B1FDF71AFC0A
:103C900002200090002002906846FEF76DFD08B1FA
:103CA000FDF710FC13B000BD7047000010B50248CE
:103CB000FFF7FDFA10BD0000B400002010B5024867
:103CC000FFF7F5FA10BD0000B400002010B502485F
:103CD000FFF7EDFA10BD0000B400002010B5024857
:103CE000FFF7E5FA10BD0000B400002010B502484F
:103CF000FFF7DDFA10BD0000FC00002010B50268DF
:103D0000154B984205D0B0F1804F02D0134B98422A
:103D100003D122F070024B681A430F4B984205D032
:103D2000B0F1804F02D00D4B984203D122F4407283
:103D3000CB681A4322F080034C6943EA0402026014
:103D40008B68C3620B688362034B984201D10B6995
:103D500003630123436110BD002C014000040040B7
:103D600030B50C46816821F47F4142EA03252543A2
:103D70002943816030BD0A46816821F0700142F01C
:103D8000070319438160704730B50B461446026A39
:103D9000056A25F001050562816921F0F00141EA1B
:103DA000041122F00A021A438161026230BD30B56B
:103DB0000B461446056A25F0100505628169026A02
:103DC00021F4704141EA043122F0A00242EA0312D8
:103DD0008161026230BD70B505466C6A0020E085E5
:103DE000E0842046FFF74EFB70BD0168C96821F4EE
:103DF00090710268D1600168496921F0010102688F
:103E00005161016B012905D10168C96821F01001D8
:103E10000268D160202180F83E10002101637047C4
:103E200010B504462068C06820F040002168C860D2
:103E3000202084F83D002046FFF783FD002010BDC0
:103E4000F8B5044694F83E00222869D1A068B0F580
:103E5000805F0CD1206950B90025A66A20684068AF
:103E6000C0F308003080A06A801CA06215E0A56A3B
:103E70000026A068B0F5805F03D0A06828B920694B
:103E800018B920684068287004E02068406800F095
:103E90007F002870A06A401CA062E08D401E80B2A6
:103EA000E085A8BB2068C06820F020002168C860B9
:103EB0002068C06820F480702168C860206840696C
:103EC00020F0010021684861202084F83E00206B2A
:103ED00001281ED1002020632068C06820F0100057
:103EE0002168C8602068006800F0100010280AD11E
:103EF00000BF0020009020680068009020684068A3
:103F0000009000BF00BFA18D2046FFF7BAFA03E082
:103F100004E02046FFF786FC0020F8BD0020FCE707
:103F20000220FAE770B504462168096921F440517E
:103F3000E2681143226811612269A1681143626934
:103F400041EA02052168C96841F20C6291432943A4
:103F50002268D1602168496921F44071A269114346
:103F6000226851612D4A2168914202D1FEF778FD05
:103F700001E0FEF765FD00EBC00101EB0011626896
:103F80009200B1FBF2F100EBC00202EB0012636899
:103F90009B00B2FBF3F26423B2FBF3F202EBC20329
:103FA00003EB0212A1EB8201322202EB0111642227
:103FB000B1FBF2F101F0F00100EBC00202EB0012E4
:103FC00063689B00B2FBF3F26423B2FBF3F201EBF4
:103FD000021200EBC00101EB001163689B00B1FB12
:103FE000F3F100EBC00303EB00136668B600B3FB0C
:103FF000F6F36426B3FBF6F303EBC30606EB0313F9
:10400000A1EB8301322303EB01116423B1FBF3F134
:1040100001F00F0111442268916070BD0038014029
:1040200010B5034699629A85DA850020186422202B
:1040300083F83E0000BF002083F83C0000BF1868F2
:10404000C06840F480701C68E0601868406940F007
:1040500001001C6860611868C06840F020001C689E
:10406000E060002010BD014691F83D00212828D1D4
:104070008868B0F5805F0BD1086948B90A6A108872
:10408000C0F308000B685860086A801C086205E0ED
:104090000B6A581C086218780B685860C88C401E60
:1040A00080B2C88458B90868C06820F080000B68E6
:1040B000D8600868C06840F040000B68D8600020F5
:1040C00070470220FCE72DE9F04104460D461746F3
:1040D0009846069E21E0701CF8B12EB1FEF7E8F973
:1040E000A0EB0800B04218D92068C06820F4D07056
:1040F0002168C8602068406920F00100216848619B
:10410000202084F83D0084F83E0000BF002084F8A1
:104110003C0000BF0320BDE8F08120680068284013
:10412000A84201D1012000E00020B842D3D00020F5
:10413000F1E7000010B50248FFF7A6F910BD000036
:104140004401002000BFFEE7490050EAC12018BF2B
:1041500004204A0D18BF40F0010040F2FF72B2EB9C
:10416000515F08BF40F00200012808BF05207047DA
:1041700002480068C0F30220704700000CED00E028
:1041800010B5002804DB0A07130E054A135406E095
:104190000A07140E034A00F00F031B1FD45410BD6E
:1041A00000E400E018ED00E010B500224FF40061DB
:1041B0000448FEF777F9012211030248FEF772F96D
:1041C00010BD0000000801400021054A126851623C
:1041D00000BF03490968496A8142FAD37047000069
:1041E000FC0000200221022007E0064A125C054B79
:1041F0005B5C9A4200DBC1B2401E0028F5DA08463B
:1042000070470000200000207CB500F03FFC1349FF
:10421000086000F085FCFFF7C7FF302010490870E8
:104220000E48006800F0AAFECDE900010C480078B5
:10423000A0F130020BA11248FBF7D6FF114908602C
:104240003220114908801148C06809884843642118
:10425000B0FBF1F00E4908807CBD00001C0000207E
:1042600029000020466C6F6F723A20256420446953
:104270007374616E63653A2025660D0A00000000C4
:10428000920100202C00002016000020FC000020DD
:104290001800002000B502465148006840F00400B4
:1042A0004F49086002204E4908310860102008601C
:1042B00020200860402008608020086000F038F965
:1042C0004748006840F0020045490860C2F300100A
:1042D00018B11020091D086004E04FF48010404917
:1042E000091D0860C2F3401020B120203C49091D7F
:1042F000086004E04FF400103949091D0860C2F35A
:10430000801020B140203649091D086004E04FF4B8
:1043100080003349091D0860D00920B18020304950
:10432000091D086004E04FF400002D49091D0860D4
:1043300000F0FEF802202A490831086010200860C9
:1043400020200860402008608020086000F0F0F81D
:104350002348006840F002002149086002F0010093
:1043600018B11020091D086004E04FF480101C49AA
:10437000091D0860C2F3400020B120201849091D22
:10438000086004E04FF400101549091D0860C2F3ED
:10439000800020B140201249091D086004E04FF45C
:1043A00080000F49091D0860C2F3C00020B18020C1
:1043B0000B49091D086004E04FF400000849091D7D
:1043C000086000F0B5F802200549083108601020A7
:1043D000086020200860402008608020086000BD40
:1043E0000C08014000B50246042050490860022034
:1043F00008601020086020200860402008608020AD
:10440000086000F095F849480838006840F002005C
:10441000464908390860C2F3001018B11020091D80
:10442000086004E04FF480104049091F0860C2F39F
:10443000401020B120203D49091F086004E04FF4DE
:1044400000103A49091F0860C2F3801020B14020D3
:104450003649091F086004E04FF480003349091F02
:104460000860D00920B180203049091F086004E0AD
:104470004FF400002D49091F086000F059F8022090
:104480002A49086010200860202008604020086049
:104490008020086000F04CF824480838006840F09C
:1044A000020022490839086002F0010018B110200A
:1044B000091D086004E04FF480101C49091F0860C2
:1044C000C2F3400020B120201849091F086004E011
:1044D0004FF400101549091F0860C2F3800020B195
:1044E00040201249091F086004E04FF480000F4982
:1044F000091F0860C2F3C00020B180200B49091FCA
:10450000086004E04FF400000849091F086000F04B
:104510000FF802200549086010200860202008607C
:10452000402008608020086000BD000014080140A1
:1045300000B54FF47A70FCF7AAFF00BD10B5034632
:104540000C46012B05D104F17F01C8B2FFF74AFFE9
:1045500006E0022B04D104F1BF01C8B2FFF742FF0D
:1045600010BD70B504460D461646FA20FDF7B4FDA1
:104570000220FFF737FF3220FDF7AEFD44F02001A7
:10458000294341EA0600FFF72DFF3220FDF7A4FD85
:104590000620FFF727FF3220FDF79EFD0E20FFF7D4
:1045A00021FF3220FDF798FD0C20FFF71BFF322082
:1045B000FDF792FD0120FFF715FF6420FDF78CFD4C
:1045C00070BD00B5034605E0FFF7B2FF13F8010B1D
:1045D000FFF760FE18780028F6D1FFF7A9FF00BDAD
:1045E00070B505460E46144631462846FFF7A6FF2D
:1045F0002046FFF7E6FF70BDFDF76CFFFFF71DFBE0
:10460000FFF7EAF9FFF7DEFAFFF76EFAFFF7A4FA11
:10461000FFF7C8F9FFF798F96C48FEF78DFD6C4875
:10462000FEF78AFD082200210846FFF79AFF69A2DB
:1046300001210846FFF7D4FF67A201210220FFF7FE
:10464000CFFF6648FDF7D6FA6448FCF73FFF01222A
:1046500063496448FFF7C4F8FFF7D6FDB4E0624849
:10466000007818B961480078002835D05E48007895
:1046700068B15E48007850B95DA201210846FFF795
:10468000AFFF5EA201210220FFF7AAFF1AE0564801
:10469000007868B95548007850B15BA201210846FE
:1046A000FFF79EFF55A201210220FFF799FF09E0C5
:1046B00058A201210846FFF793FF50A201210220D2
:1046C000FFF78EFF4248C0680321B0FBF1F083B2D0
:1046D0001846FFF779FD77E05148006864214843A8
:1046E000C0F30F304F4908803948C06809884843F3
:1046F0006421B0FBF1F04C49088000F0C7F94B4948
:10470000086000214948006800F070FC0BD048495F
:104710004648006800F031FD05D300214348006899
:1047200000F0ACFC0FD243484049086008460068DE
:1047300000F024FC044622460B463F493F48FBF765
:1047400053FD3F49086000F0E9F800F087FA364869
:104750000088FFF739FD00F0E3F900F0AFF83948C1
:10476000008838B93748408820B93648808808B969
:10477000012000E00020344908700846007810B39A
:10478000FFF730FD314908702F48007830B13048CC
:1047900000880978884201D0012000E000202A49E1
:1047A00008700846007870B102212648274A12781E
:1047B00020F812100648C0680321B0FBF1F083B264
:1047C0001846FFF701FD00BF49E70000B4000020D4
:1047D000FC000020300000002D0000004000002000
:1047E000290000204401002027000020280000208C
:1047F000464C414D452020202000000044455445B2
:10480000435445440000000047415320202020200D
:1048100020000000464C414D452D4741530000000B
:104820001000002016000020180000201C000020AE
:1048300000003442666634428C5200089201002027
:104840002C00002002000020250000202400002071
:104850000000002010B50122D1020548FDF722FE1C
:1048600000224FF480510248FDF71CFE10BD0000ED
:104870000008014010B50F48C0680321B0FBF1F0FB
:1048800083B21846FFF7A0FC012211020A48FDF787
:1048900009FE0848C0680321B0FBF1F083B2184656
:1048A000FFF792FC00224FF480710348FDF7FAFDF8
:1048B00010BD0000FC0000200008014010B51248A7
:1048C00012490988405CE8B1FFF7C4FFFFF7D2FF47
:1048D00005E000F0DBF80E490860FFF7CBFF0D495B
:1048E0000B48006800F0CAFBF3D30B490848006886
:1048F00000F043FCEDD3FFF757FC00200249034AC8
:104900001288885410BD00000A000020000000201A
:104910001C000020000020420000344200B53F4847
:10492000008818B93D48008802281ED13C480088FC
:10493000002808DD3A480088401E394908800120D7
:104940003849087068E035480088012806D13348A6
:104950000088022802D0002000F06AF800202F49C9
:10496000088001203049087056E02C48408818B96A
:104970002A48408802282AD12948008840B9284876
:104980000088401C2649088001202849087043E01F
:1049900023480088022808D121480088401E204969
:1049A000088001201F49087036E01C484088012813
:1049B00006D11A484088022802D0012000F038F8B9
:1049C00000201649488001201749487024E0134808
:1049D000808818B91148808802281DD110480088A5
:1049E000022808DA0E480088401C0D490880012082
:1049F0000E49087010E009488088012806D1074850
:104A00008088022802D0022000F012F8002003491A
:104A1000888001200449887000BD00000200002049
:104A200000000020090000200A00002008000020EB
:104A300010B51249097849B1114A124B1B78D15C63
:104A4000114A525C521E104B5A5400BF0D490B784C
:104A50000978491C0B4C21700949C8540A49095C62
:104A6000491C094A1154214609780A2905D1002117
:104A7000224611700121014A117010BD260000204C
:104A80008801002023000020200000202DE9F047AD
:104A90000024A146002210211E48FDF703FD0A2034
:104AA000FFF792FB012210211A48FDF7FBFC0A20B8
:104AB000FFF78AFB002210211648FDF7F3FC0A20BD
:104AC000FFF782FB00BF08211248FDF7E3FC002836
:104AD000F9D003E0641C0120FFF776FB08210D48A4
:104AE000FDF7D8FC0028F5D1204600F0B3FA824645
:104AF00000F044FA0746084A084B00F041F9054621
:104B000000F00CF981463220FFF75EFB4846BDE815
:104B1000F0870000000C0140D7A3703D0AD7EB3F9F
:104B20002DE9F04188B03448008808B9012000E040
:104B30000020044630480088012800D100E0002011
:104B400005462D480088022801D1012000E0002000
:104B50008046224680212948FDF7A4FC2A464FF4CE
:104B600080712648FDF79EFC42464FF400712348B1
:104B7000FDF798FC2048028821A12448FBF734FB6C
:104B8000224A01210846FFF72BFD214800783028F2
:104B900003DB1F480078322806DD1EA12648FBF7FC
:104BA00023FB264908601EE02548006800F0E6F96E
:104BB00006460F46234803682348807822494978EF
:104BC000214A1278CDE90503CDE903211F48007879
:104BD000CDE900670290084802881D491648FBF796
:104BE00003FB1649086000201A4908701A4908702A
:104BF00008B0BDE8F081000000000020000C01407A
:104C00002564202020202020202000009202002067
:104C1000290000204176616C6961626C6520666CD8
:104C20006F6F7273206172653A2030202D20312021
:104C30002D20320D0A000000920100202C000020DF
:104C40001C00002010000020200000202400002074
:104C500014530008080000200900002070B518480F
:104C60000078012800D100E00020044615480078B3
:104C7000012800D100E00020054622464FF4805173
:104C80001148FDF70FFC2A4604210F48FDF70AFCE6
:104C90000B48007828B10DA201210220FFF7A0FCEB
:104CA0000DE00848007828B10BA201210220FFF78F
:104CB00097FC04E00BA201210220FFF791FC70BDDC
:104CC0000800002009000020000C01405550202061
:104CD0002020202020000000444F574E202020207C
:104CE00020000000535441592020202020000000C3
:104CF00010B500290AD00878002807D00548784464
:104D0000FBF7D6FE002801D0002010BD02487844F1
:104D100010BD0000920600008A06000021F000424B
:104D2000A2F16052B2F5801F01F0004328BFD2F11A
:104D30007F6C0BD95FEA001C43EAC20242EB507061
:104D400018BF704728BF20F001007047B2F5801FE0
:104D5000BCBF184670474FEA410C1CF5001F02D239
:104D6000084600F005BA70B500F0B4F800000089FC
:104D7000FFF7F6BF4FF00040A0F58000704700003D
:104D8000DFF848C170B51CEA111E1EBF1CEA1315DE
:104D90009EEA0C0F95EA0C0F00F06F8081EA030485
:104DA00023EA4C134EEAD47E21EA4C1141F48011DF
:104DB00043F48013AE44A1FB024CA0FB0365AEF1AB
:104DC0007F7E361955EB0C05A1FB034C4CF100031B
:104DD000A0FB021C16EB0C06654153F100030942CF
:104DE00018BF46F0010613F4007F0BD14FEA0331E0
:104DF0004FEA0530340341EA155140EA16506FF08E
:104E000003020AE04FEAC3214FEAC520F40241EA57
:104E1000555140EA56506FF0020202EB2E4201EB70
:104E2000025585EACE710AD05FEA440C18BF24F01F
:104E3000004450F1000041F1000120EAD47040F23A
:104E4000FE7C624500D270BDA84214BF4FF0804482
:104E50004FF04044002E08BF0024BEF1806FA8BF71
:104E6000A1F1C041BDE8704080F282804FF00000A7
:104E700001F1C04101F0004170479EEA0C0F0CEABD
:104E8000131518BF95EA0C0F06D04FF0000081EA09
:104E9000030E0EF0004170BD00F01CF88900013EC9
:104EA00000F007B800F009B84FEA430C5FEA5C5C19
:104EB00008D081EA030100F05BB84FEA410C5FEAD9
:104EC0005C5CF6D14FF00000014970470000FF071D
:104ED0000000F87F0EF1020E2EF0030E5EF8046B58
:104EE000364205D4012A43EB030515F5001F12D8FD
:104EF000012841EB010C1CF5001F0CD80ED14FEA24
:104F0000D17C15F5001F0CEB4C0C0CF1020C08BF0A
:104F10004CEBD37C04E04FF0080C01E04FEAD37C6B
:104F20000CEB4C0526FA05F606F00706B6F1040C64
:104F300006D20EEB860CBDE870404CF0010C6047C9
:104F4000DFE80CF0090B02024FF000414FF00000C7
:104F5000A1F5002170BD19461046012851EB01044E
:104F600018BFD4F5001484BF002001F0004170BDCB
:104F70000808A0F500114FEA3101704743004FEADD
:104F8000D30C4FEA3C0C43401FBF40070CF160516B
:104F900013F0FE4F70471CF0006F03D100200CF09F
:104FA000004170470CF0004343EA507010B540EAEE
:104FB000CC0000F097F800BF000000924FEA00011B
:104FC000FFF7D6BF4FF000414FF00000A1F50021E0
:104FD0007047401058BFC0F14040491058BFC1F160
:104FE00040418142EFF300807047000050EA010C1D
:104FF00000F113801CF5000F58BFBCF5000F01D461
:105000008842704707D710F5000F58BF11F5000F01
:1050100015D488427047894270471CF5000F04D5AB
:10502000BCF5000FF7D5814270474FF0807C1CEB38
:10503000400F38BF1CEB410F01D28142704710B5C1
:1050400000F050F8922449004FF000504FF080518A
:10505000FFF7BFBFB0FA80F310FA03F2C3F19D036C
:105060000AD0D90501EB1220530638BF704700F172
:10507000010008BF20F001007047000050EA010C59
:1050800000F113801CF5000F58BFBCF5000F01D4D0
:105090008842704707D710F5000F58BF11F5000F71
:1050A00015D488427047894270471CF5000F04D51B
:1050B000BCF5000FF7D5814270474FF0807C1CEBA8
:1050C000400F38BF1CEB410F01D28142704710B531
:1050D00000F008F8922449004FF000504FF0805142
:1050E000FFF777BF0EF1020E2EF0030E5EF8044BB1
:1050F000244204D44FEA4102B2F17F4F11D84FEA63
:105100004003B3F17F4F0CD80ED14FEAD07CB2F1FF
:105110007F4F0CEB4C0C0CF1020C08BF4CEBD17C1C
:1051200004E04FF0080C01E04FEAD17C0CEB4C039B
:1051300024FA03F404F00704B4F1040C06D20EEBD5
:10514000840CBDE810404CF0010C6047DFE80CF027
:10515000070802024FF00040A0F5800010BD08468D
:10516000420018BFD2F1807288BF00F0004010BD2D
:10517000FF2141EAD050C005704751EA000C00F110
:1051800013801CF5000F58BFBCF5000F01D48142FD
:10519000704707D711F5000F58BF10F5000F15D451
:1051A00081427047894270471CF5000F04D5BCF559
:1051B000000FF7D5884270474FF0807C1CEB410F01
:1051C00038BF1CEB400F01D28842704780EA0100D3
:1051D00081EA000180EA0100FFF779BFFBF7E6B939
:1051E0000000000000000000010203040607080997
:1051F000000000000102030402400000000000A0C3
:105200000000000005400000000000C80000000091
:105210000C4000000000409C00000000194000000D
:105220000020BCBE0000000034400000BFC91B8E3F
:1052300000000004B5400000504BCFD06607E2CF1D
:10524000010000006C4100003E8251AADFEEA7344D
:1052500001000000D9420000DCB5A0E23A301F97FF
:10526000FFFFFFFFB4450000FD25A0C8E9A3C14F23
:10527000FFFFFFFFFF3F0000000000800000000074
:10528000FF3F0000000000800000000044697374CC
:10529000616E63653A2025660D0A44697374616E18
:1052A00063652076616C756573206D75737420621B
:1052B00065206265747765656E203020616E6420BC
:1052C000343520636D0D0A436F6E74726F6C2074F9
:1052D00068652064697374616E63652073656E73BD
:1052E0006F722C20446F6F722077696C6C2062653E
:1052F000206F70656E2074696C6C2073656E736FBF
:105300007220697320636F72726563746564210D26
:105310000A0000000D0A466C6F6F723A2025642067
:1053200044697374616E63653A2025660D0A4172A3
:10533000726976616C205461726765743A202564E5
:105340000D0A4C6173742074656E20617272697607
:10535000616C733A205B25642C2025642C20256425
:105360005D0D0A4144433A2025640D0A0000000007
:10537000AC53000800000020400000002801000895
:10538000EC53000840000020B80900004401000868
:105390001C00000043000000F8FFFFFF0C000000AD
:1053A0000E0000000F0000002E00000000000000B2
:1053B00000000000000000000000000000080000E5
:1053C00000000000000000000000000000000000DD
:1053D00000000001010000000000000000000000CB
:0C53E00010000000010000000024F40098
:04000005080000ED02
:00000001FF
